:100000000C9414060C943C060C943C060C943C0690
:100010000C943C060C943C060C943C060C943C0658
:100020000C943C060C943C060C940C0E0C947B0E29
:100030000C943C060C943C060C943C060C943C0638
:100040000C943C060C943C060C943C060C943C0628
:100050000C943C060C943C060C943C060C94AD109D
:100060000C943C060C943C060C943C060C943C0608
:100070000C943C060C943C060C943C060C943C06F8
:100080000C943C060C943C060C943C060C943C06E8
:100090000C943C060C943C060C943C060C943C06D8
:1000A0000C943C060C943C060C943C0605A84CCDE4
:1000B000B2D44EB93836A9020C50B9918688083CA2
:1000C000A6AAAA2ABE000000803F29200000000046
:1000D0000080F01F0701000001070F1F7E383F7CE2
:1000E000783020F0C1878CB8E080FCFFC060F0FE63
:1000F00077FC7F1FFF00000000F81F010000008058
:1001000080C060301C1E0C0C1EFE0E860202030115
:1001100041455557FFFF2D2F2E38FFF8B0F7C0C0CF
:10012000F01F03000406030301018000008080C06B
:100130006070390F070703020606070303FFFFFF7E
:10014000F0000001FFF31F8101070C1818101018B0
:10015000080C0603031FFF00000000000000000061
:10016000000000000000010303070780E0F0FFFC2F
:10017000222000F00F0000000000000000C080C03E
:1001800040705CE77F700C7F1F013F4167BC70FFD0
:10019000DCE000FF00FF00000000000000F80703A3
:1001A000717DFF7373CF3F0700000000FE3779FFBA
:1001B00003BE7807FF07F80F00000000000000FFF3
:1001C000204080800103010040C080804400000185
:1001D00081C0601F00F8FF0087FCD0708000000025
:1001E000007F82050B1021C3828204048C8C7ECE9A
:1001F0000B091110FF0080FF7D0000000000003E91
:100200005B4F5B3E3E6B4F6B3E1C3E7C3E1C183C86
:100210007E3C181C577D571C1C5E7F5E1C00183CE2
:100220001800FFE7C3E7FF0018241800FFE7DBE72B
:10023000FF30483A060E2629792926407F05050712
:10024000407F05253F5A3CE73C5A7F3E1C1C08086E
:100250001C1C3E7F14227F22145F5F005F5F060933
:100260007F017F006689956A606060606094A2FF8C
:10027000A29408047E040810207E201008082A1C7E
:1002800008081C2A08081E101010100C1E0C1E0C4A
:1002900030383E3830060E3E0E06000000000000EA
:1002A000005F00000007000700147F147F14242A59
:1002B0007F2A12231308646236495620500008072B
:1002C0000300001C2241000041221C002A1C7F1C4C
:1002D0002A08083E0808008070300008080808084E
:1002E000000060600020100804023E5149453E00B5
:1002F000427F400072494949462141494D33181413
:10030000127F1027454545393C4A49493141211161
:1003100009073649494936464949291E0000140053
:100320000000403400000008142241141414141476
:10033000004122140802015909063E415D594E7CD4
:100340001211127C7F494949363E414141227F4189
:1003500041413E7F494949417F090909013E4141E7
:1003600051737F0808087F00417F41002040413FD2
:10037000017F081422417F404040407F021C027FE1
:100380007F0408107F3E4141413E7F090909063E36
:100390004151215E7F091929462649494932030105
:1003A0007F01033F4040403F1F2040201F3F403817
:1003B000403F631408146303047804036159494DF2
:1003C00043007F4141410204081020004141417F28
:1003D000040201020440404040400003070800209E
:1003E000545478407F28444438384444442838449E
:1003F00044287F385454541800087E090218A4A4D5
:100400009C787F0804047800447D40002040403DF3
:10041000007F1028440000417F40007C047804786D
:100420007C080404783844444438FC182424181800
:10043000242418FC7C08040408485454542404045C
:100440003F44243C4040207C1C2040201C3C403049
:10045000403C44281028444C9090907C4464544C78
:1004600044000836410000007700000041360800D3
:1004700002010204023C2623263C1EA1A161123A7D
:100480004040207A385454555921555579412154CA
:10049000547841215554784020545579400C1E52CF
:1004A0007212395555555939545454593955545473
:1004B000580000457C410002457D420001457C40DA
:1004C000F0292429F0F0282528F07C5455450020F7
:1004D00054547C547C0A097F493249494932324894
:1004E000484832324A4848303A4141217A3A4240FB
:1004F0002078009DA0A07D39444444393D404040CF
:100500003D3C24FF2424487E4943662B2FFC2F2B9F
:10051000FF0929F620C0887E090320545479410040
:1005200000447D413048484A32384040227A007ABF
:100530000A0A727D0D19317D2629292F282629299D
:10054000292630484D4020380808080808080808BF
:10055000382F10C8ACBA2F102834FA00007B0000E6
:1005600008142A142222142A14089500220095AA9D
:10057000005500AAAA55AA55AA000000FF001010B5
:1005800010FF00141414FF001010FF00FF1010F0F3
:1005900010F0141414FC001414F700FF0000FF0006
:1005A000FF1414F404FC141417101F10101F101F54
:1005B0001414141F00101010F0000000001F101081
:1005C00010101F10101010F010000000FF1010107D
:1005D000101010101010FF10000000FF140000FF9A
:1005E00000FF00001F10170000FC04F41414171083
:1005F000171414F404F40000FF00F7141414141476
:100600001414F700F7141414171410101F101F14EB
:100610001414F4141010F010F000001F101F00004C
:10062000001F14000000FC140000F010F01010FF78
:1006300010FF141414FF141010101F00000000F01D
:1006400010FFFFFFFFFFF0F0F0F0F0FFFFFF0000F2
:10065000000000FFFF0F0F0F0F0F38444438447C99
:100660002A2A3E147E02020606027E027E0263559C
:100670004941633844443C04407E201E2006027EEB
:10068000020299A5E7A5991C2A492A1C4C720172FD
:100690004C304A4D4D303048784830BC625A463D67
:1006A0003E494949007E0101017E2A2A2A2A2A441C
:1006B000445F444440514A444040444A5140000051
:1006C000FF0103E080FF000008086B6B083612365C
:1006D0002436060F090F060000181800000010103D
:1006E000003040FF0101001F01011E00191D1712FB
:1006F000003C3C3C3C0000000000F0F89C8E8783EE
:10070000878E9CF8F00000FEFF0303030303070E2F
:10071000FCF80000FEFF0303030303070EFCF800D0
:1007200000FFFF00000000000000FFFF0000FEFFD0
:100730008383838383C7EE7C380000F8FC0E0703B5
:100740000303070EFCF800003F7FE0C08080C0E09C
:100750007F3FFFFF01010101010101FFFF0000FFD9
:10076000FF0C0C0C0C1C3E77E3C100007FFFC0C0E7
:10077000C0C0C0E0703F1F00001F3F70E0C0C0C09D
:10078000E0703F1F00007FFFC1C1C1C1C1E3773EE0
:100790001C00001F3F70E0C0C0C0E0703F1F0000A1
:1007A00000000001FFFF01000000D5F08D14A1C87A
:1007B00081CFD9F1AF200080400000000000000090
:1007C0000000000000000000000000000000000029
:1007D0000000000000000000000000000000000019
:1007E00000000000000000000080000080E0E070D9
:1007F000A0200000B0B0B080809080C0D0F0C0C019
:1008000080C0F0F080808080800000000000000048
:1008100000C0E0E0F0F0F0F0F0F0F0F0E0E0C0C098
:10082000C000000000000000000000000000000008
:1008300000000000000000000000000000000000B8
:10084000000000000000000000000000000000C0E8
:10085000E0F0B838DC7C3C1C1C9C88B0A000808098
:10086000808080302020B8F968E9CCB9DFF5F3D278
:10087000F0F3FBF8F8F8F8FDF9FBF9F9FFFFFFFFDB
:10088000FFFFFFFFFFFBFBFBFF83010000000000F9
:1008900080C10F0EDEDEFEFFFFFEFFFFFFFFFBFF4E
:1008A000F3F0E0C0C0000000000000000000000005
:1008B0000000000000000000000000000000000038
:1008C0000000000000000000000000000000000127
:1008D00043E1F9F8FEFEFFFFFFFFFFFFFFFFFFFF11
:1008E000FFFFFFFF9FFFFFFFFFFFFFFFFFFFFFFF78
:1008F000FFFFFFFFFFFFFFFFFFFF7F3F3F1F1F0FB8
:100900000F0F0707070303030303020000000000A3
:1009100002060300071F3FFFFFFFFFFFFFFFFFFF70
:10092000FFFFFFFFFF00000000003000000000F4A8
:10093000F87000000000000000000000000000004F
:1009400000000000000000000000000000000000A7
:1009500000000001030307010303030303010387EE
:10096000E7FFFFFFFFFFFFFFFFEFEFEFEFFFFFFFEF
:100970007F0F1F1F3F0F0703010000000000000052
:10098000000000000040E0E0F0F8F8F0F8FBFFFFA6
:10099000F9FBF8D0D0900000071F3F3F3F3F073FD3
:1009A0007F7F7F7F7F7E30000000007800001E3E4A
:1009B0000400000000000000000000000000000033
:1009C0000000000000000000000000000000000027
:1009D000000000C0C8F8F8FCF8FCF0F88880809BA4
:1009E000BF7F7EFBFB1D1F1F1F1F3F3F3F37313067
:1009F00020206020000040000000000080808080F7
:100A000080040081868F8F8F8FEFEFEFFFFFFFDF76
:100A10009F9F1F1F1F1E10121000000000000000EB
:100A2000000000E0E0E0E0E0E00000000000000086
:100A300000000000000000000000000000000000B6
:100A400000000000000000000000000000000000A6
:100A5000000021113577DFFFFFFFFFAF070703031A
:100A6000030103000000000000000000000000007F
:100A7000000000000000000000060420200000002C
:100A8000031F1FBFFFFFFFFFFFFFFFFFFFFFFFFF72
:100A9000FFFFFFFFFFFEFCFCFCFCFCFCFC7C1C02DF
:100AA0000204060707478F0F074000000000000000
:100AB0000000700080000000000000000000000046
:100AC0000000000000000000000000000000000026
:100AD000000086661AA7030B07F77FEC00000000F2
:100AE0000000000000000000000000000000000006
:100AF0000000000000080080080410000000000052
:100B00000100002101070F0F7FFFFFFF7F7F3F3FA5
:100B10001F0F0F0707070703010081131030303044
:100B2000202042004090908200980C06020060A0B5
:100B3000F0F0F8FCFEFCF8F0E0000000000000001F
:100B4000000000000000000000000000000000C0E5
:100B5000380E030000008000C3C06066FDFEF0C0D8
:100B60008000000000000000000000000000000005
:100B700000000000000000C1C0C0C08080808080F4
:100B80008080000000000000000101001010000043
:100B9000000040000000000080FE0200008084C1D0
:100BA000E0C0F04EC0C0C0C0802030000801020884
:100BB00001030307070707071D080B0002020200D5
:100BC00000090400000102020000052400100105D4
:100BD0002401010104240206052406000107058101
:100BE0000310004009040100020A0000000705028A
:100BF00002400000070583024000000403090412BC
:100C0000010002EF0201404123368000010102038E
:100C10000141726475696E6F204C4C4300417264EF
:100C200075626F7900002A1111241FBECFEFDAE040
:100C3000DEBFCDBF12E0A0E0B1E0E2E9FFE202C01A
:100C400005900D92A833B107D9F726E0A8E3B2E0EA
:100C500001C01D92A33CB207E1F716E0C4E1D6E063
:100C600004C02197FE010E94C117C331D107C9F703
:100C70000E9447110C94C7170C940000480F592F7D
:100C8000511D1416150684F5803891056CF597FFF3
:100C900002C090E080E04138510514F040E850E097
:100CA000481BFB01E770FF2721E001C0220FEA95F6
:100CB000EAF777FF02C0695F7F4FFB0133E0F595EC
:100CC000E7953A95E1F7F695FE2FEE27F795E7952C
:100CD000E80FF91FE159FD4F415030F08191DF01DC
:100CE0001197822B8C93F8CF0895EF92FF920F9378
:100CF0001F93CF93DF93DC01FA0184913196E49145
:100D0000082F10E098012A0F3B1F2115310509F427
:100D100049C07B01EE0EF11CEF2809F443C0F3E05B
:100D200075956795FA95E1F72038310514F080E85C
:100D30008A1B91E03E2F377009F490E0E695E69526
:100D4000E6959E0F9B01290F311D2930310514F0C6
:100D500098E0961B4E5F5F4FC62F9B013695322F52
:100D60002227379527952A0F3B1F21593D4FEC2FFE
:100D7000E61BE917B8F4B0E0A0E0A81768F4FA01A0
:100D8000EA0FFB1FD491C7FD05C07901EA0EFB1ED7
:100D9000F701D0831196F1CF400F511F20583F4FDC
:100DA000CF5FE5CFDF91CF911F910F91FF90EF9033
:100DB0000895EFE6F2E0A0E0B8E000800EBC8111FB
:100DC000012C1197A0FDFDCF0192B9F70DB4089544
:100DD000FC0180916E02882311F13FB7F89482E004
:100DE0008093E9002091F200822F90E018161906F6
:100DF00014F481E090E0882339F0289844E6409389
:100E00006D024091F1004083222339F02091F200DD
:100E1000211103C02BE62093E8003FBF08958FEF18
:100E20009FEF08952FB7F89483E08093E9009091A5
:100E3000E800892F807295FF04C09091F20080E451
:100E4000891B2FBF08958091650281110DC082E03A
:100E50008093610284E08093620210926402109297
:100E6000630281E08093650281E692E00895CF936A
:100E7000DF931F92CDB7DEB76983DC01ED91FC9162
:100E80000280F381E02D41E050E0BE016F5F7F4FB3
:100E900009950F90DF91CF91089583E08093E90049
:100EA0008091F200882319F08AE38093E800089586
:100EB0000E94120790E00895CF93DF931F92CDB761
:100EC000DEB7FC018485958597FD08C02FEF3FEFC5
:100ED000358724870F90DF91CF910895CE01019639
:100EE0000E94E806019719F4898190E0F3CF8FEF13
:100EF0009FEFF0CF0F931F93CF93DF931F92CDB748
:100F0000DEB78C01FC018485958597FF0BC0CE016F
:100F100001960E94E806019771F4898190E0F8013A
:100F200095878487F801848595850F90DF91CF910F
:100F30001F910F9108958FEF9FEFF1CFFC018485F2
:100F4000958597FD0BC09FB7F89482E08093E900E8
:100F50008091F2009FBF90E0019608959FB7F894AA
:100F600082E08093E9008091F2009FBF90E00895B5
:100F700040915B0250915C022091590230915A02DB
:100F800042175307B4F49091E8009570E1F3909103
:100F9000E80092FD19C08093F10080915B0290916E
:100FA0005C0201968F739927892B19F48EEF809339
:100FB000E80080915B0290915C02019690935C0244
:100FC00080935B0281E0089580E00895DF92EF92C4
:100FD000FF920F931F93CF93DF93D82E8A01EB01DB
:100FE0007B01E40EF51ECE15DF0559F0D7FE12C0C9
:100FF000FE0184910E94B80721968111F4CF0FEF72
:101000001FEFC801DF91CF911F910F91FF90EF90DB
:10101000DF9008958881EECF0F931F93CF93DF93D6
:101020001F92CDB7DEB782E0898342E450E069EBDE
:101030007BE080E80E94E6070E942307DC0112960D
:101040000D911C910115110589F0D801ED91FC91CC
:101050000280F381E02DBE016F5F7F4FC8010995CB
:1010600097FD04C0F80100851185ECCF89810F90B0
:10107000DF91CF911F910F910895615030F0209131
:10108000F100FC0120830196F8CF289884E6809334
:101090006D020895FC010E94E108319728F0685123
:1010A0007C4F8F4F9F4FF9CFAB01FC010E94E108AD
:1010B000641775078E079F07C8F308958F929F9254
:1010C000AF92BF92CF92DF92EF92FF920F931F9356
:1010D000CF93DF936C017B018A01809126018823E5
:1010E00009F45AC080916E02882309F455C080919A
:1010F000600280FF05C08091E00082608093E00084
:10110000E801B12C8AEFA82E93E0892E2AE3922ED3
:10111000209711F4BB20C9F10E941207811108C069
:10112000AA94AA20C9F181E090E00E944A08F0CF79
:101130008C171D0611F00CF08C2F9FB7F89480923D
:10114000E9002091E80025FD02C09FBFE1CF282FD4
:1011500030E0C21BD30BF701815020F04191409346
:10116000F100FACFE20EF31EBB2021F09092E800CE
:10117000B12CEBCF8091E80085FDE7CF9092E8009D
:10118000BB24B394209709F3F3CF5D9884E6809352
:101190005F02101611063CF081E090E0F6019383A7
:1011A000828310E000E0C801DF91CF911F910F9181
:1011B000FF90EF90DF90CF90BF90AF909F908F9077
:1011C0000895A5E5B2E02FB7F8947D918D919C919B
:1011D00066B52FBFA89B05C06F3F18F47F5F8F4F88
:1011E0009F4F22E0660F771F881F991F2A95D1F71E
:1011F0000895AF92BF92CF92DF92EF92FF920F933A
:101200001F93CF93DF936C017B018B01040F151F9C
:10121000EB015E01AE18BF08C017D10759F0699104
:10122000D601ED91FC910190F081E02DC601099568
:10123000892B79F7C501DF91CF911F910F91FF9015
:10124000EF90DF90CF90BF90AF90089590E00C9416
:101250004A088FB18095807F669B88601C9B846064
:1012600008955C988EBD00000DB407FEFDCF5C9A1A
:10127000089590914902982329F490914A02982365
:1012800081E009F480E0089580E00C94D90680386C
:101290009105B8F460347105A0F490E121E061FD9E
:1012A00024E060FD220F62FD2295687F969FD001A9
:1012B0001124A80FA159BD4F0C90022A40FF02260D
:1012C0000C9208952F923F924F925F926F927F926D
:1012D0008F929F92AF92BF92CF92DF92EF92FF9246
:1012E0000F931F93CF93DF93EC018B017A01690178
:1012F000C61AD70AD7FE03C0D194C194D1084701BA
:101300008C1A9D0A97FE03C09194819491088C14C5
:101310009D0454F49E2D8F2D7901292F382F9C2F59
:101320008D2FE801092F182FEC16FD0654F4902F8D
:10133000812F8901292F382F9C2F8D2FE701E92E2E
:10134000F82E17012C1A3D0A2901401A510A57FE9E
:1013500003C0519441945108310137FE03C08FEF0F
:10136000681A780A759467948FEF021713070CF4C4
:1013700081E0A82E880FBB08EC16FD06A4F041E022
:10138000BE01C8018C149D0414F0B801CE010E9466
:1013900047096418750877FE04C00A0D1B1D620C0E
:1013A000731C2196E9CFDF91CF911F910F91FF9090
:1013B000EF90DF90CF90BF90AF909F908F907F90F5
:1013C0006F905F904F903F902F9008952F923F9293
:1013D0004F925F926F927F928F929F92AF92BF9245
:1013E000CF92DF92EF92FF920F931F93CF93DF93F1
:1013F0007C016B0188248394912CD0E0C0E003E051
:1014000010E09AEF692E77247A942EEFA22EBB2457
:10141000BA94842F8470582E842F8270482E842F83
:101420008870382E4170242E219682E0880E911CFF
:10143000A80CB91C552091F041E0B8016C0D7D1D40
:10144000C7018C0F9D1F0E94470941E0B6016C0F38
:101450007D1FC8018E0D9F1D0E944709442091F0F9
:1014600041E0B601601B710BC7018C0F9D1F0E94EC
:10147000470941E0B6016C1B7D0BC8018E0D9F1D15
:101480000E944709332091F041E0B6016C0F7D1FA7
:10149000C701801B910B0E94470941E0B8016C0D08
:1014A0007D1DC7018C1B9D0B0E944709222091F0D6
:1014B00041E0B6016C1B7D0BC701801B910B0E94A4
:1014C000470941E0B601601B710BC7018C1B9D0BE6
:1014D0000E944709C017D1076CF48FEFA816B80611
:1014E00009F4A2CF0150110982E0680E711CA60C0C
:1014F000B71C9ACFDF91CF911F910F91FF90EF9082
:10150000DF90CF90BF90AF909F908F907F906F9023
:101510005F904F903F902F9008958F929F92AF923F
:10152000BF92CF92DF92EF92FF920F931F93CF93D0
:10153000DF936D3009F458C06A3009F445C08091DA
:101540004002811139C0C0904D02D0904E020091EE
:101550004B0210914C0285E0689FE0011124C650B7
:10156000DE4F4801F12CE5E0E12CFE1629F0CE011A
:101570000196FE01E490EC01B12CA12C4E2D41709E
:10158000B6016A0D7B1DC4010E944709E694FFEF76
:10159000AF1ABF0A88E0A816B10481F7F394EFEF01
:1015A0008E1A9E0AF6E0FF12DECF0A5F1F4F1093DD
:1015B0004C0200934B0218C080914B0290914C0258
:1015C0008C3791050CF4BFCF10924C0210924B0255
:1015D00080914D0290914E02089690934E02809316
:1015E0004D026A3009F0AFCF81E090E0DF91CF91FA
:1015F0001F910F91FF90EF90DF90CF90BF90AF9031
:101600009F908F90089590914302992379F0892FAC
:10161000880F890F93E894BD9FEF97BD91EF90934A
:1016200080008093880010928A00089583E884BD2A
:101630008FEF87BD81EF8093800010928800F3CFF9
:10164000089590E080E00895FC0101900020E9F702
:101650003197AF01481B590BBC018FEB96E00C94FE
:10166000F9088F929F92AF92BF92CF92DF92EF9242
:10167000FF920F931F93CF93DF93CDB7DEB7A19760
:101680000FB6F894DEBF0FBECDBF6C01990FEE0808
:10169000FF08F7FE41C06DE28FEB96E00E948D0AD5
:1016A0008C0122273327A9012C193D094E095F0916
:1016B00019A2CE0181967C019AE0892E912CA12C51
:1016C000B12CCA01B901A50194010E942A15605DDF
:1016D000F70162937F01211531054105510589F715
:1016E00090E080E0309719F0CF010E94240B800F2A
:1016F000911FA1960FB6F894DEBF0FBECDBFDF914C
:10170000CF911F910F91FF90EF90DF90CF90BF90FE
:10171000AF909F908F900895A701960119A28E0116
:101720000F5D1F4F8AE0C82ED12CE12CF12CCA018D
:10173000B901A70196010E942A15605DF801629324
:101740008F01211531054105510589F790E080E0B1
:10175000309779F2CF010E94240BCBCF2F923F928A
:101760004F925F926F927F928F929F92AF92BF92B1
:10177000CF92DF92EF92FF920F931F93CF93DF935D
:10178000CDB7DEB764970FB6F894DEBF0FBECDBFFE
:1017900040E751E070E060E087E090E00E9475066D
:1017A0004AEC50E060E270E090E080E00E94750654
:1017B0002091190130911A013A8329834091170130
:1017C000509118015C8B4B8B809115019091160103
:1017D0000091130110911401209011013090120119
:1017E0009C01990F440B550B2F83388749875A87E3
:1017F000C801012E000CAA0BBB0B8B879C87AD8701
:10180000BE879101032C000C440B550B2F87388B9E
:10181000498B5A8B49815A818B899C894817590772
:101820000CF45FC0BC01990F880B990B0E94FB154B
:1018300025E33AEF4EE85CE30E94EF164B015C01B2
:101840006F81788589859A850E94FB156B017C01E3
:10185000C501B4010E94BE156B837C838D839E837A
:10186000C501B4010E945C172B013C016B857C858E
:101870008D859E850E94FB154B015C01A3019201A1
:10188000C701B6010E94EF169B01AC01C501B4016E
:101890000E944D150E94C3154B016F857889898977
:1018A0009A890E94FB152B013C012B813C814D81C3
:1018B0005E81C701B6010E94EF169B01AC01C30116
:1018C000B2010E944D150E94C315CB019801A101E0
:1018D000B4010E946209AB89BC891196BC8BAB8BA9
:1018E00099CF46E467E370E08DE290E00E943E0607
:1018F0002AE330E03A83298341E069817A818AE2F0
:1019000090E00E94470949815A814F5F5F4F5A8397
:1019100049834034510581F78AE390E09A838983B3
:1019200041E069817A8185E790E00E944709A981B9
:10193000BA811196BA83A983A034B10589F741E031
:101940006AE370E08DE290E00E94E60942E06AE31B
:1019500070E082E790E00E94E60944E062E470E013
:1019600082E790E00E94E60948E062E470E08DE2E0
:1019700090E00E94E60960910D0170910E01809146
:101980000F01909110010E94C3152B016091090174
:1019900070910A0180910B0190910C010E94C31576
:1019A0004B016091050170910601809107019091B2
:1019B00008010E94C3156B01609101017091020141
:1019C00080910301909104010E94C315CB01920103
:1019D000A401B6010E9462098CE390E090934C024E
:1019E00080934B0210924E0210924D028CE491E0D3
:1019F0000E94240B80914402909145020E94310B79
:101A0000809148028230B9F58AE090E090934C02D0
:101A100080934B0289E190E090934E0280934D02B7
:101A200085E591E00E94240B809141029091420251
:101A300065E070E00E94AD17892BD9F487EA6496BF
:101A40000FB6F894DEBF0FBECDBFDF91CF911F91CF
:101A50000F91FF90EF90DF90CF90BF90AF909F904D
:101A60008F907F906F905F904F903F902F900C944D
:101A7000310986EAE4CF64960FB6F894DEBF0FBE54
:101A8000CDBFDF91CF911F910F91FF90EF90DF902D
:101A9000CF90BF90AF909F908F907F906F905F900E
:101AA0004F903F902F9008954F925F926F927F9248
:101AB0008F929F92AF92BF92CF92DF92EF92FF925E
:101AC000CF93DF93CDB7DEB760970FB6F894DEBF44
:101AD0000FBECDBF6B017C010E945C176D837E83BE
:101AE0008F839887C701B6010E94BE1569877A87E0
:101AF0008B879C87A1E0B1E08D919D910D90BC9169
:101B0000A02D89839A83AB83BC839C01AD01609136
:101B1000090170910A0180910B0190910C010E94C2
:101B20004C154B015C0140900501509006016090FE
:101B3000070170900801A301920160910D0170915D
:101B40000E0180910F01909110010E944C156B01C4
:101B50007C0129853A854B855C85C501B4010E94CD
:101B6000EF166D877E878F87988B2D813E814F8101
:101B70005885C701B6010E94EF169B01AC016D8527
:101B80007E858F8598890E944C1529813A814B81E9
:101B90005C810E944D156093090170930A01809346
:101BA0000B0190930C012D813E814F815885C50119
:101BB000B4010E94EF164B015C0129853A854B85E3
:101BC0005C85C701B6010E94EF169B01AC01C501FF
:101BD000B4010E944D15A30192010E944D1560931E
:101BE0000D0170930E0180930F0190931001609688
:101BF0000FB6F894DEBF0FBECDBFDF91CF91FF903F
:101C0000EF90DF90CF90BF90AF909F908F907F909C
:101C10006F905F904F9008951F920F920FB60F92A2
:101C200011248F939F938091E1009091E100937F25
:101C30009093E10083FF0FC01092E90091E0909330
:101C4000EB001092EC0092E39093ED0010926E0284
:101C500098E09093F00082FF22C093E09093E90017
:101C60009091F200992319F09AE39093E8009091F3
:101C70005F02992341F090915F02915090935F022F
:101C8000911101C05D9A90916D02992341F090915C
:101C90006D02915090936D02911101C0289A84FFBA
:101CA00018C08091E2008E7E81608093E200809176
:101CB000E1008F7E8093E100809160028E7E8061E2
:101CC000809360029F918F910F900FBE0F901F9095
:101CD000189580FFF7CF8091E2008E7E806180931F
:101CE000E2008091E1008E7E8093E10080916002AD
:101CF0008E7E8160E5CF1F920F920FB60F92112456
:101D0000CF92DF92EF92FF920F931F932F933F9307
:101D10004F935F936F937F938F939F93AF93BF93F3
:101D2000EF93FF93CF93DF93CDB7DEB76C97DEBF12
:101D3000CDBF1092E9008091E80083FF25C068E0E4
:101D4000CE0145960E943D0882EF8093E8008D8980
:101D500087FF39C09091E80090FFFCCF982F9076D4
:101D600009F034C19E894F89588D2F89F88C9111C3
:101D700031C0803861F580915E028093F10010924D
:101D8000F1008EEF8093E8006C960FB6F894DEBFFA
:101D90000FBECDBFDF91CF91FF91EF91BF91AF917A
:101DA0009F918F917F916F915F914F913F912F9173
:101DB0001F910F91FF90EF90DF90CF900F900FBE8B
:101DC0000F901F9018959EEF9093E800C7CF109248
:101DD000F100D5CF913059F48111D3CF4130510565
:101DE00081F680915E028D7F80935E02CACF933030
:101DF00049F48111C6CF4130510519F680915E0238
:101E00008260F2CF953041F48091E80080FFFCCFF2
:101E100020682093E300B5CF963009F0A9C00B8D60
:101E20001C8D22E01092E90010925C0210925B027D
:101E3000F2122EC010925A02109259020E940C08FF
:101E40001F8299E09983FA8291E09E8390EA9887B5
:101E50009AEF998720915B0230915C02275F3F4F98
:101E60003C832B838D831092E90010925C021092C8
:101E70005B0210935A020093590249E050E0BE0100
:101E80006F5F7F4F80E00E94E6070E940C0879CFC9
:101E900010935A02009359020E942307DC01129604
:101EA0000D911C910115110509F451C1D801ED9155
:101EB000FC910480F581E02DBE016B5E7F4FC8016F
:101EC0000995009709F03EC1F80100851185EACF18
:101ED000F3E0FF120EC08F89882309F440C08230DE
:101EE00061F440E867E08DE19CE00E94F710811109
:101EF00048CF81E28093EB0047CF813029F440E85E
:101F00006BE081E19CE0F1CF833099F70E942307D9
:101F1000DC011296ED90FC908E010F5F1F4F68015F
:101F2000E114F10479F0D701ED91FC910680F7817D
:101F3000E02DB801C7010995080F111DF701E084D4
:101F4000F184EECFD8011C92F60101900020E9F750
:101F50003197BF016C197D0940E0C601C6CF6BEF18
:101F60007BE0FB01449150E080E80E94E60709CF46
:101F7000973009F4BECF983021F481E08093F100CE
:101F800000CF993009F0FDCE837009F0B2CFE8E2BE
:101F9000F1E081E031E096E32191222371F080931A
:101FA000E9003093EB00DF0111972C912093EC00B6
:101FB0009093ED008F5F873079F78EE78093EA008A
:101FC0001092EA008F8980936E02DBCE8B8D9C8D00
:101FD0001092E90010925C0210925B0290935A02F8
:101FE00080935902898D811192C08E899D89913A81
:101FF00049F4813209F07DCF47E050E06FE171E0B4
:1020000080E0B3CF913209F074CF833269F48F89C5
:10201000988DB0E0A0E080931B0190931C01A093E9
:102020001D01B0931E01ADCE803269F48091E800AD
:1020300082FFFCCF67E08FE191E00E943D088BEFCB
:102040008093E8009ECE823209F09BCE8F898093E8
:102050002601EEEFFFE7859194918B3F9C4D51F166
:10206000E0E0F8E080911F0190912001A091210112
:10207000B0912201803B9440A105B105F1F480911B
:10208000260180FD1AC0EE3F8AE0F80789F587E750
:1020900097E7918380838091600080935D0288E15F
:1020A0009BE00FB6F894A895809360000FBE9093C4
:1020B000600067CEEEEFFAE0D5CF8081918187375F
:1020C000974709F05ECEA895809160008861809363
:1020D000600080915D0280936000EE3F2AE0F2078D
:1020E00089F08091FE0A9091FF0A9183808349CE06
:1020F000808191818737980751F29093FF0A8093EE
:10210000FE0AC5CF1092FF0A1092FE0A3ACE0E9434
:102110002307DC0112960D911C910115110509F49C
:10212000E8CED801ED91FC910190F081E02DBE0147
:102130006B5E7F4FC8010995811123CEF8010085A0
:102140001185EBCF181619060CF41BCED2CEF1E098
:10215000FF12BECE6FEF7BE004CF0F920FB68F93CE
:102160009F93EF93FF93809150028D5F8D3708F01E
:102170008D5780935002E1E5F2E080818E4F80839D
:1021800091819F4F918382818F4F828383818F4F73
:102190008383E5E5F2E080818F5F808381818F4FCB
:1021A000818382818F4F828383818F4F83838FB11D
:1021B0008F6066991C9B88278F3681F480914F022F
:1021C000981B963068F0E0E0F8E087E78083818331
:1021D00088E180936000F0936000FFCF90934F02FE
:1021E000FF91EF919F918F910FBE0F901895EF92F5
:1021F000FF920F931F93CF93DF93F82E192FE62EA4
:10220000042F81E0860F880F0E94B80783E00E94A8
:10221000B807CF2DD12FEC0EFD2EF11CCE15DF050A
:10222000B9F007FF13C0FE0184910E94B807182F70
:1022300080E00E94B807812321968111EFCFDF91C2
:10224000CF911F910F91FF90EF9008958881EDCF6E
:1022500081E0F5CFEFE6F6E01382128288EE93E09C
:10226000A0E0B0E084839583A683B78382E391E006
:10227000918380838FEF9FEF95878487EFEBF6E064
:102280001382128284E491E091838083089578948C
:1022900083E084BD83E085BD81E080936E00E1E84A
:1022A000F0E083E08083E0E881E08083E1E983E09F
:1022B0008083E0E981E08083E1EC87E08083E3ECE8
:1022C00081E08083E0EC82E08083E2EC81E0808347
:1022D000EAE787E080838068808310926E02109224
:1022E0005E02109260028091D70081608093D700D7
:1022F00080EA8093D80089B5806189BD89B5826004
:1023000089BD09B400FEFDCF81E090E00E944A083B
:102310008091D8008F7C80618093D8008091E0000C
:10232000807F8093E0008091E1008E7E8093E100C9
:102330008DE08093E200559A209A81EC80937C0096
:1023400081EF85B987EE84B982E38BB982EF8AB9D0
:10235000769A6E9880EF81BB10BA80E58CBD81E0E3
:102360008DBD85E00E9426095F9A85E00E942609BE
:102370005C98EAEAF7E085918EBD00000DB407FE97
:10238000FDCFE73BC1F75C9A81E88093640081E070
:10239000809365000E9444090E94290987FF10C0AC
:1023A00085EA0E9431092E982F982D98809164001B
:1023B00080628093640081E083BF889513BEFCCF68
:1023C0000E94290982FF37C02D980E94290984782C
:1023D0008438A1F42D9A88EC0E9426092F986FEF7B
:1023E00082E090E00E940A1584EF91E00E944A0882
:1023F0002F9A0E94290984788438D9F30E942909E8
:1024000084718431A1F42D9A88EC0E9426092E98BB
:1024100060E082E090E00E940A1584EF91E00E9463
:102420004A082E9A0E94290984718431D9F388ECD4
:102430000E942609C5CF2D9A82E090E00E940215E5
:10244000882309F445C03E9A3F9A81E090E00E94BB
:102450000215182F147081FF0AC011112E98C1EFB8
:10246000DFEF0E94290986FF36C02E9A2F9A82E359
:102470000E9426090E9429098111F9CF80E18093E9
:1024800000012BE8222E3324339434EB632E712C7D
:1024900008E611E049E1E42EF12C57EDC52ED12CD0
:1024A0005524539444244A9487E3882E912C90E039
:1024B000A92E90E0B92E20913E02222309F4A4C057
:1024C00010923E02A114B104B1F30E940000E8CFC3
:1024D0003E983F98BACF112329F0C430D10511F4AA
:1024E0002E9A2F9881E00E94D9060C2F0770A02EFB
:1024F000AE0163E0559547956A95E1F79A013695E7
:10250000322F22273795279521593D4F70E060E003
:102510004E3F8FEF580761F190E080E0DB01A6505D
:10252000B94F7901E0E8EE0EF11CFD01E80FF91F4B
:10253000E491F0E04F010A2C02C0880C991C0A9427
:10254000E2F74F3F540739F06901C80ED91EF60172
:10255000B488B828B48AAA2039F06701C80ED91EF9
:10256000F60104890929048B019688359105E9F65D
:102570004F5F5F4F20583F4F685A7F4F603B710558
:1025800039F60E9444098FE00E9426092196C9313C
:10259000D10509F066CF112311F02F9A2D9880E90B
:1025A00091E00E944A082D9A81E090E00E94021575
:1025B00080FF5DCF8AE090E00E9402159FEF980FA8
:1025C0009E3F08F054CF22E330E030934C0220933A
:1025D0004B0228E330E030934E0220934D02CAE0D4
:1025E000D0E0682F8FEB96E00E948D0A2196CE01F5
:1025F0000E940215C031D105A1F70E94440988EE5E
:1026000093E00E944A0833CF9091510280913F029B
:10261000F92FF81B8F2F30910001F31740F48F5FD3
:10262000831708F04FCF53BE889513BE4BCF5092FF
:102630003E0290933F02E1E4F2E0808191810196B5
:1026400080839183EFE6F2E021112FEF8FEF21934A
:102650002193219321938150D0F710924E02109232
:102660004D0210924C0210924B0280914A028093CC
:1026700049020E94290980934A02809148028130D0
:1026800009F473C048F0823009F44AC1833009F478
:10269000A0C10E94440916CFF0921601E0921501E4
:1026A000D0921801C092170130921A01209219019C
:1026B00010924502109244021092430223E824BD76
:1026C00047BC81EF809380001092880010928A00AE
:1026D00047EB57E070E060E090E080E00E94750614
:1026E0005092400210924C0210924B0210924E02F5
:1026F00010924D0289E691E00E94240B84E791E05C
:102700000E94240B80E190E00E9402158093460213
:1027100081E190E00E940215809347028091460279
:10272000909147020E94310B10924C0210924B0282
:1027300090924E0280924D028DE791E00E94240B10
:1027400088E00E943909811104C080E20E943909A1
:1027500081115092480284E00E943909882309F4CB
:1027600098CF83E08093480294CF87EA0E94310992
:102770000E94290985FF31C020911701309118016D
:102780002B3E310554F560910D0170910E01809141
:102790000F01909110012E5F3F4F3093180120934D
:1027A00017012091190130911A012E5F3F4F30938C
:1027B0001A012093190120E030E04CE152E40E941C
:1027C000EA16181654F48091410280FD06C06EEAA4
:1027D00077E481E69DE30E94540D20E030E048E478
:1027E00052E460910D0170910E0180910F01909162
:1027F00010010E94B91587FF0AC08091410280FD37
:1028000006C067E179ED8EEC9CEB0E94540D20E050
:1028100030E048E452E460910D0170910E01809126
:102820000F01909110010E94EA16181664F480E0DE
:1028300090E0A8E4B2E480930D0190930E01A09380
:102840000F01B0931001C0911701D0911801C53B41
:10285000D10594F00E94290985FD0EC02197D093DF
:102860001801C09317018091190190911A010197E5
:1028700090931A018093190180911701909118018A
:10288000843B910544F470921801609217011093F3
:102890001A01009319010E94030B80911701909176
:1028A0001801853B91059CF18B3B91053CF02091F3
:1028B0004302222319F02150209343029C01285BFC
:1028C00031092230310588F4809143028F5F809373
:1028D00043028091440290914502019690934502F3
:1028E000809344020E94AE0BD4CE873B9105D4F76F
:1028F0008091440290914502029690934502809304
:102900004402809143028E5F80934302EBCF843B6D
:10291000910541F74092430232E030934802E2CF02
:10292000C0914402D09145028091460290914702A5
:102930008C179D07E4F4D0934702C093460280E1D0
:1029400090E00E940215C81729F06C2F80E190E0FA
:102950000E941C15C091470281E190E00E9402157F
:10296000C81729F06C2F81E190E00E941C150E948D
:10297000AE0B0E94030B80911501909116018639D0
:1029800091052CF401969093160180931501809186
:10299000170190911801813A91052CF001979093BD
:1029A0001801809317018091190190911A018C37B9
:1029B000E1E09E072CF4019690931A01809319018F
:1029C00088E00E943909882309F463CE10924802F6
:1029D00060CE82E991E00E94240B84E392E00E94A1
:1029E000240B80E20E9439098111F0CF88E00E9417
:1029F00039098111EBCF84E00E9439098111E6CFBA
:102A000080E4DFCFF999FECF92BD81BDF89A992776
:102A100080B50895262FF999FECF92BD81BDF89A11
:102A2000019700B4021639F01FBA20BD0FB6F89412
:102A3000FA9AF99A0FBE0895262FF999FECF1FBA78
:102A400092BD81BD20BD0FB6F894FA9AF99A0FBED7
:102A500001960895A1E21A2EAA1BBB1BFD010DC011
:102A6000AA1FBB1FEE1FFF1FA217B307E407F5073E
:102A700020F0A21BB30BE40BF50B661F771F881F1A
:102A8000991F1A9469F760957095809590959B01B0
:102A9000AC01BD01CF0108955058BB27AA270E9461
:102AA00064150C949C160E94631638F00E946A16F6
:102AB00020F039F49F3F19F426F40C9460160EF4BC
:102AC000E095E7FB0C945A16E92F0E94C11658F3C3
:102AD000BA17620773078407950720F079F4A6F503
:102AE0000C94E3160EF4E0950B2EBA2FA02D0B01DB
:102AF000B90190010C01CA01A0011124FF27591B43
:102B000099F0593F50F4503E68F11A16F040A22F48
:102B1000232F342F4427585FF3CF469537952795B9
:102B2000A795F0405395C9F77EF41F16BA0B620BB8
:102B3000730B840BBAF09150A1F0FF0FBB1F661FFF
:102B4000771F881FC2F70EC0BA0F621F731F841F42
:102B500048F4879577956795B795F7959E3F08F068
:102B6000B0CF9395880F08F09927EE0F979587952A
:102B700008950E94361608F481E008950E947316A5
:102B8000E3950C94AD160E94CA156894B1110C948B
:102B9000E41608950E94C91688F09F5798F0B92F3F
:102BA0009927B751B0F0E1F0660F771F881F991F82
:102BB0001AF0BA95C9F714C0B13091F00E94E3162B
:102BC000B1E008950C94E316672F782F8827B85F3B
:102BD00039F0B93FCCF3869577956795B395D9F7DA
:102BE0003EF490958095709561957F4F8F4F9F4FE4
:102BF0000895E89409C097FB3EF4909580957095F0
:102C000061957F4F8F4F9F4F9923A9F0F92F96E938
:102C1000BB279395F695879577956795B795F111AD
:102C2000F8CFFAF4BB0F11F460FF1BC06F5F7F4F4A
:102C30008F4F9F4F16C0882311F096E911C077235C
:102C400021F09EE8872F762F05C0662371F096E865
:102C5000862F70E060E02AF09A95660F771F881F34
:102C6000DAF7880F9695879597F90895990F0008D8
:102C7000550FAA0BE0E8FEEF16161706E807F9074E
:102C8000C0F012161306E407F50798F0621B730BE9
:102C9000840B950B39F40A2661F0232B242B252B6A
:102CA00021F408950A2609F4A140A6958FEF811D0D
:102CB000811D089597F99F6780E870E060E00895AE
:102CC0009FEF80EC089500240A9416161706180644
:102CD0000906089500240A94121613061406050620
:102CE00008950C9460160E94C916D8F3E894E0E0A9
:102CF000BB279F57F0F02AED3FE049EC06C0EE0FEE
:102D0000BB0F661F771F881F28F0B23A6207730750
:102D1000840728F0B25A620B730B840BE3959A95E3
:102D200072F7803830F49A95BB0F661F771F881FA3
:102D3000D2F790480C946617092E0394000C11F4F6
:102D4000882352F0BB0F40F4BF2B11F460FF04C086
:102D50006F5F7F4F8F4F9F4F0895EF93E0FF07C046
:102D6000A2EA2AED3FE049EC5FEB0E9464150E9465
:102D70009C160F90039401FC9058ECEAF0E00C9440
:102D8000721757FD9058440F551F59F05F3F71F06F
:102D90004795880F97FB991F61F09F3F79F08795C2
:102DA0000895121613061406551FF2CF4695F1DF4B
:102DB00008C0161617061806991FF1CF86957105DB
:102DC000610508940895E894BB2766277727CB010F
:102DD00097F908950E94361608F48FEF08950E941F
:102DE00002170C949C160E94631638F00E946A1613
:102DF00020F0952311F00C945A160C9460161124AF
:102E00000C94E4160E94C11670F3959FC1F3950FC0
:102E100050E0551F629FF001729FBB27F00DB11D5E
:102E2000639FAA27F00DB11DAA1F649F6627B00DEE
:102E3000A11D661F829F2227B00DA11D621F739FD7
:102E4000B00DA11D621F839FA00D611D221F749FE5
:102E50003327A00D611D231F849F600D211D822F2C
:102E6000762F6A2F11249F5750409AF0F1F0882353
:102E70004AF0EE0FFF1FBB1F661F771F881F915080
:102E80005040A9F79E3F510580F00C945A160C94BF
:102E9000E4165F3FE4F3983ED4F386957795679503
:102EA000B795F795E7959F5FC1F7FE2B880F911DAA
:102EB0009695879597F908959F930E9473160F90A2
:102EC00007FCEE5F0C94AD169F3F31F0915020F45B
:102ED000879577956795B795880F911D96958795F6
:102EE00097F908959F938F937F936F93FF93EF9339
:102EF0009B01AC010E94EF16EF91FF910E94861793
:102F00002F913F914F915F910C94EF16DF93CF93E8
:102F10001F930F93FF92EF92DF927B018C016894D5
:102F200006C0DA2EEF010E940217FE01E894A59177
:102F30002591359145915591A6F3EF010E946415B5
:102F4000FE019701A801DA9469F7DF90EF90FF90F6
:102F50000F911F91CF91DF910895AA1BBB1B51E1E7
:102F600007C0AA1FBB1FA617B70710F0A61BB70BF9
:102F7000881F991F5A95A9F780959095BC01CD019E
:102F80000895EE0FFF1F0590F491E02D0994F89439
:022F9000FFCF71
:102F9200100000704200005C42000000420000206D
:102FA20042500037001900D7008B01FFFFFFFF00DE
:102FB200E100000000000000C1808100000000006C
:102FC200000037075E0858074D079E075C077A071F
:102FD200000000008D0AF908210B200B73636F7249
:102FE20065203A2000212121434F52452043524976
:102FF200544943414C2121210044656D6F6E2043A9
:103002006F7265002020204849203A20003C2F4161
:103012003A53746172742020202020423A48656C31
:10302200700055736520746865204C4546542062D3
:103032007574746F6E2020746F20726169736520DD
:1030420073637265776472697665722E2054727941
:1030520020746F206765742074686520636F7265E1
:1030620020636C6F736520746F2063726974696387
:10307200616C6974792C20627574206265206361C9
:10308200726566756C3A2049662020697420676F04
:10309200657320637269746963616C20796F75204E
:1030A20077696C6C20626520636F6E73756D656401
:1030B20020627920206E75636C6561722066697288
:0830C200652121000D0A000048
:00000001FF
