:100000000C9418050C9440050C9440050C94400584
:100010000C9440050C9440050C9440050C9440054C
:100020000C9440050C9440050C947E0D0C94ED0D41
:100030000C9440050C9440050C9440050C9440052C
:100040000C9440050C9440050C9440050C9440051C
:100050000C9440050C9440050C9440050C941F1022
:100060000C9440050C9440050C9440050C944005FC
:100070000C9440050C9440050C9440050C944005EC
:100080000C9440050C9440050C9440050C944005DC
:100090000C9440050C9440050C9440050C944005CC
:1000A0000C9440050C9440050C94400505A84CCDDB
:1000B000B2D44EB93836A9020C50B9918688083CA2
:1000C000A6AAAA2ABE000000803F29200000000046
:1000D0000080F01F0701000001070F1F7E383F7CE2
:1000E000783020F0C1878CB8E080FCFFC060F0FE63
:1000F00077FC7F1FFF00000000F81F010000008058
:1001000080C060301C1E0C0C1EFE0E860202030115
:1001100041455557FFFF2D2F2E38FFF8B0F7C0C0CF
:10012000F01F03000406030301018000008080C06B
:100130006070390F070703020606070303FFFFFF7E
:10014000F0000001FFF31F8101070C1818101018B0
:10015000080C0603031FFF00000000000000000061
:10016000000000000000010303070780E0F0FFFC2F
:10017000222000F00F0000000000000000C080C03E
:1001800040705CE77F700C7F1F013F4167BC70FFD0
:10019000DCE000FF00FF00000000000000F80703A3
:1001A000717DFF7373CF3F0700000000FE3779FFBA
:1001B00003BE7807FF07F80F00000000000000FFF3
:1001C000204080800103010040C080804400000185
:1001D00081C0601F00F8FF0087FCD0708000000025
:1001E000007F82050B1021C3828204048C8C7ECE9A
:1001F0000B091110FF0080FF7D0000000000003E91
:100200005B4F5B3E3E6B4F6B3E1C3E7C3E1C183C86
:100210007E3C181C577D571C1C5E7F5E1C00183CE2
:100220001800FFE7C3E7FF0018241800FFE7DBE72B
:10023000FF30483A060E2629792926407F05050712
:10024000407F05253F5A3CE73C5A7F3E1C1C08086E
:100250001C1C3E7F14227F22145F5F005F5F060933
:100260007F017F006689956A606060606094A2FF8C
:10027000A29408047E040810207E201008082A1C7E
:1002800008081C2A08081E101010100C1E0C1E0C4A
:1002900030383E3830060E3E0E06000000000000EA
:1002A000005F00000007000700147F147F14242A59
:1002B0007F2A12231308646236495620500008072B
:1002C0000300001C2241000041221C002A1C7F1C4C
:1002D0002A08083E0808008070300008080808084E
:1002E000000060600020100804023E5149453E00B5
:1002F000427F400072494949462141494D33181413
:10030000127F1027454545393C4A49493141211161
:1003100009073649494936464949291E0000140053
:100320000000403400000008142241141414141476
:10033000004122140802015909063E415D594E7CD4
:100340001211127C7F494949363E414141227F4189
:1003500041413E7F494949417F090909013E4141E7
:1003600051737F0808087F00417F41002040413FD2
:10037000017F081422417F404040407F021C027FE1
:100380007F0408107F3E4141413E7F090909063E36
:100390004151215E7F091929462649494932030105
:1003A0007F01033F4040403F1F2040201F3F403817
:1003B000403F631408146303047804036159494DF2
:1003C00043007F4141410204081020004141417F28
:1003D000040201020440404040400003070800209E
:1003E000545478407F28444438384444442838449E
:1003F00044287F385454541800087E090218A4A4D5
:100400009C787F0804047800447D40002040403DF3
:10041000007F1028440000417F40007C047804786D
:100420007C080404783844444438FC182424181800
:10043000242418FC7C08040408485454542404045C
:100440003F44243C4040207C1C2040201C3C403049
:10045000403C44281028444C9090907C4464544C78
:1004600044000836410000007700000041360800D3
:1004700002010204023C2623263C1EA1A161123A7D
:100480004040207A385454555921555579412154CA
:10049000547841215554784020545579400C1E52CF
:1004A0007212395555555939545454593955545473
:1004B000580000457C410002457D420001457C40DA
:1004C000F0292429F0F0282528F07C5455450020F7
:1004D00054547C547C0A097F493249494932324894
:1004E000484832324A4848303A4141217A3A4240FB
:1004F0002078009DA0A07D39444444393D404040CF
:100500003D3C24FF2424487E4943662B2FFC2F2B9F
:10051000FF0929F620C0887E090320545479410040
:1005200000447D413048484A32384040227A007ABF
:100530000A0A727D0D19317D2629292F282629299D
:10054000292630484D4020380808080808080808BF
:10055000382F10C8ACBA2F102834FA00007B0000E6
:1005600008142A142222142A14089500220095AA9D
:10057000005500AAAA55AA55AA000000FF001010B5
:1005800010FF00141414FF001010FF00FF1010F0F3
:1005900010F0141414FC001414F700FF0000FF0006
:1005A000FF1414F404FC141417101F10101F101F54
:1005B0001414141F00101010F0000000001F101081
:1005C00010101F10101010F010000000FF1010107D
:1005D000101010101010FF10000000FF140000FF9A
:1005E00000FF00001F10170000FC04F41414171083
:1005F000171414F404F40000FF00F7141414141476
:100600001414F700F7141414171410101F101F14EB
:100610001414F4141010F010F000001F101F00004C
:10062000001F14000000FC140000F010F01010FF78
:1006300010FF141414FF141010101F00000000F01D
:1006400010FFFFFFFFFFF0F0F0F0F0FFFFFF0000F2
:10065000000000FFFF0F0F0F0F0F38444438447C99
:100660002A2A3E147E02020606027E027E0263559C
:100670004941633844443C04407E201E2006027EEB
:10068000020299A5E7A5991C2A492A1C4C720172FD
:100690004C304A4D4D303048784830BC625A463D67
:1006A0003E494949007E0101017E2A2A2A2A2A441C
:1006B000445F444440514A444040444A5140000051
:1006C000FF0103E080FF000008086B6B083612365C
:1006D0002436060F090F060000181800000010103D
:1006E000003040FF0101001F01011E00191D1712FB
:1006F000003C3C3C3C0000000000F0F89C8E8783EE
:10070000878E9CF8F00000FEFF0303030303070E2F
:10071000FCF80000FEFF0303030303070EFCF800D0
:1007200000FFFF00000000000000FFFF0000FEFFD0
:100730008383838383C7EE7C380000F8FC0E0703B5
:100740000303070EFCF800003F7FE0C08080C0E09C
:100750007F3FFFFF01010101010101FFFF0000FFD9
:10076000FF0C0C0C0C1C3E77E3C100007FFFC0C0E7
:10077000C0C0C0E0703F1F00001F3F70E0C0C0C09D
:10078000E0703F1F00007FFFC1C1C1C1C1E3773EE0
:100790001C00001F3F70E0C0C0C0E0703F1F0000A1
:1007A00000000001FFFF01000000D5F08D14A1C87A
:1007B00081CFD9F1AF2000244700000000000000E5
:1007C000000000000000C0E0F0F8F8F8FCFEFEFEBB
:1007D000FEFFFFFFFFFFFFFFFFFFFFFFFF00000027
:1007E0000000C0E0E0FCFEFFFFFFFFFFFFFFFFFF98
:1007F000FFFFFFFFFFFFFFFFFFFFFFFFFFFFFFFF09
:10080000FF00F0F8FCFEFFFFFFFFFFFFFFFFFFFF11
:10081000FFFFFFFFFFFFFFFFFFFFFFFFFFFFFFFFE8
:10082000FFFFFFFFFFFFFFFFFFFFFFFFFFFFFFFFD8
:10083000FFFFFFFFFFFFFFFFFFFFFFFFFFFFFFFFC8
:10084000FFFFFFFFFFFFFFFFFFFFFFFFFFFFFFFFB8
:10085000FFFFFFFFFFFFFFFFFFFFFFFFFFFFFFFFA8
:10086000FFFFFFFFFFFFFFFFFFFFFFFFFFFFFFFF98
:10087000FFFFFFFFFFFFFFFFFFFFFFFFFFFFFFFF88
:10088000FFFFFFFFFFFFFFFFFFFFFFFFFFFFFFFF78
:10089000FF0003070F1FFFFFFFFFFFFFFFFFFFFF2B
:1008A000FFFFFFFFFFFFFFFFFFFFFFFFFFFFFFFF58
:1008B000FFFFFFFFFF00000000000107073F7FFF71
:1008C000FFFFFFFFFFFFFFFFFFFFFFFFFFFFFFFF38
:1008D000FFFFFFFFFFFFFFFFFF0000000000000021
:1008E0000000000000000307070707070F1F3F7FF6
:1008F0007F7F7F7F7F7F7F7F7F7F7F3F1F1020FFF6
:10090000FFFFFFFFFEFEFCFCF8F0F0C0800000FFE0
:10091000FFFFFFFFFFFFFFFFFFFFFFFFFFFEF8FFEF
:10092000FFFFFFFFFFFFFFFFFFFFFFFFFFFF3FFF97
:10093000FFFFFFFFFFFF7F7F3F1F1F070300002018
:10094000200000000000000000083CFCFEFEFEFF4E
:10095000FFFFFFFEFEFEFC3800000000000000006C
:10096000000000000000000000000000030F8FCF17
:10097000CFCFCF8F0F01000000000000000000006B
:1009800000FCFCFCFCFEFEFEFEFEFEF8E0870F1FF6
:100990001F1F1F0F82E0F8FEFEFEFEFEFEFEFEFCA5
:1009A000FC00070F1F3F7F7F7F7F1F0703010000B1
:1009B000000000000003071F7F7F7F7F3F1F0F079E
:1009C00000080B00020202000009040000010202FC
:1009D0000000052400100105240101010424020681
:1009E00005240600010705810310004009040100E9
:1009F000020A00000007050202400000070583020A
:100A00004000000403090412010002EF020140410A
:100A100023368000010102030141726475696E6F23
:100A2000204C4C430041726475626F7900009C1049
:100A300011241FBECFEFDAE0DEBFCDBF12E0A0E091
:100A4000B1E0E8E8F0E302C005900D92AC33B107E5
:100A5000D9F726E0ACE3B2E001C01D92A93CB20791
:100A6000E1F715E0C8E1D5E004C02197FE010E943E
:100A70003C18C731D107C9F70E94B9100C9442182D
:100A80000C940000480F592F511D1416150684F5BB
:100A9000803891056CF597FF02C090E080E0413806
:100AA000510514F040E850E0481BFB01E770FF27B8
:100AB00021E001C0220FEA95EAF777FF02C0695FE3
:100AC0007F4FFB0133E0F595E7953A95E1F7F69511
:100AD000FE2FEE27F795E795E80FF91FEB58FD4F2E
:100AE000415030F08191DF011197822B8C93F8CF28
:100AF00008956F927F928F929F92AF92BF92CF9202
:100B0000DF92EF92FF920F931F93CF93DF939C019D
:100B1000FA0194903196E491C92CD12CD601A80FFA
:100B2000B91F109709F475C0CB018E0F911D892B49
:100B300009F46FC0862F8770F3E075956795FA9575
:100B4000E1F7862EA038B1051CF090E8992E921A94
:100B500091E0FE2FF77009F490E0E695E695E695B2
:100B60009E0FFB01E90FF11D399714F098E0961BD9
:100B70004E5F5F4FEB01D695DC2FCC27D795C795FD
:100B8000C20FD31FA82E082E000CBB08AFEFB0E099
:100B9000082E02C0AA0FBB1F0A94E2F7A095B095D9
:100BA0007B2E282D261B2917A0F58E010B581D4FD3
:100BB000F12CE12CE91438F5FA01EE0DFF1D24911A
:100BC00030E00A2C02C0220F331F0A94E2F787FCA0
:100BD00008C0F8016080E62DEA236E2E622AF80133
:100BE0006082882351F0F6E0F8153CF0F801E058F7
:100BF000FF4F20812721232B20832FEFE21AF20AB7
:100C00000F5F1F4FD7CF4C0D5D1DC058DF4F839432
:100C1000C8CFDF91CF911F910F91FF90EF90DF90A0
:100C2000CF90BF90AF909F908F907F906F900895DE
:100C3000E5E7F2E0A0E0B8E000800EBC8111012CF5
:100C40001197A0FDFDCF0192B9F70DB40895FC01F5
:100C500080917402882311F13FB7F89482E0809369
:100C6000E9002091F200822F90E01816190614F482
:100C700081E090E0882339F0289844E6409373029D
:100C80004091F1004083222339F02091F20021119C
:100C900003C02BE62093E8003FBF08958FEF9FEF3E
:100CA00008952FB7F89483E08093E9009091E800CD
:100CB000892F807295FF04C09091F20080E4891B17
:100CC0002FBF089580916B0281110DC082E0809347
:100CD000670284E08093680210926A0210926902AF
:100CE00081E080936B0287E692E00895CF93DF93D3
:100CF0001F92CDB7DEB76983DC01ED91FC910280D4
:100D0000F381E02D41E050E0BE016F5F7F4F099518
:100D10000F90DF91CF91089583E08093E900809157
:100D2000F200882319F08AE38093E80008950E9476
:100D3000510690E00895CF93DF931F92CDB7DEB7B1
:100D4000FC018485958597FD08C02FEF3FEF35871F
:100D500024870F90DF91CF910895CE0101960E94D4
:100D60002706019719F4898190E0F3CF8FEF9FEF69
:100D7000F0CF0F931F93CF93DF931F92CDB7DEB7C2
:100D80008C01FC018485958597FF0BC0CE010196EF
:100D90000E942706019771F4898190E0F8019587F8
:100DA0008487F801848595850F90DF91CF911F91FD
:100DB0000F9108958FEF9FEFF1CFFC01848595850A
:100DC00097FD0BC09FB7F89482E08093E900809173
:100DD000F2009FBF90E0019608959FB7F89482E0DB
:100DE0008093E9008091F2009FBF90E008954091C8
:100DF00061025091620220915F02309160024217BD
:100E00005307B4F49091E8009570E1F39091E800F5
:100E100092FD19C08093F10080916102909162026D
:100E200001968F739927892B19F48EEF8093E80030
:100E30008091610290916202019690936202809388
:100E4000610281E0089580E00895DF92EF92FF92C1
:100E50000F931F93CF93DF93D82E8A01EB017B0171
:100E6000E40EF51ECE15DF0559F0D7FE12C0FE01C7
:100E700084910E94F70621968111F4CF0FEF1FEFA6
:100E8000C801DF91CF911F910F91FF90EF90DF90FC
:100E900008958881EECF0F931F93CF93DF931F9216
:100EA000CDB7DEB782E0898342E450E061EC79E0BF
:100EB00080E80E9425070E946206DC0112960D91CF
:100EC0001C910115110589F0D801ED91FC9102806A
:100ED000F381E02DBE016F5F7F4FC801099597FD3B
:100EE00004C0F80100851185ECCF89810F90DF9156
:100EF000CF911F910F910895615030F02091F10032
:100F0000FC0120830196F8CF289884E68093730231
:100F10000895FC010E942008319728F068517C4F09
:100F20008F4F9F4FF9CFAB01FC010E94200864173F
:100F300075078E079F07C8F308958F929F92AF920F
:100F4000BF92CF92DF92EF92FF920F931F93CF93B6
:100F5000DF936C017B018A0180912801882309F4C9
:100F60005AC080917402882309F455C080916602AA
:100F700080FF05C08091E00082608093E000E8017E
:100F8000B12C8AEFA82E93E0892E2AE3922E209787
:100F900011F4BB20C9F10E945106811108C0AA9426
:100FA000AA20C9F181E090E00E948907F0CF8C1758
:100FB0001D0611F00CF08C2F9FB7F8948092E90079
:100FC0002091E80025FD02C09FBFE1CF282F30E02F
:100FD000C21BD30BF701815020F041914093F100E7
:100FE000FACFE20EF31EBB2021F09092E800B12C64
:100FF000EBCF8091E80085FDE7CF9092E800BB241D
:10100000B394209709F3F3CF5D9884E6809365024B
:10101000101611063CF081E090E0F6019383828384
:1010200010E000E0C801DF91CF911F910F91FF9078
:10103000EF90DF90CF90BF90AF909F908F900895EA
:10104000ABE5B2E02FB7F8947D918D919C9166B598
:101050002FBFA89B05C06F3F18F47F5F8F4F9F4F36
:1010600022E0660F771F881F991F2A95D1F70895F0
:10107000AF92BF92CF92DF92EF92FF920F931F93A6
:10108000CF93DF936C017B018B01040F151FEB01E4
:101090005E01AE18BF08C017D10759F06991D6019B
:1010A000ED91FC910190F081E02DC6010995892B0D
:1010B00079F7C501DF91CF911F910F91FF90EF90CC
:1010C000DF90CF90BF90AF90089590E00C94890787
:1010D0008FB18095807F669B88601C9B846008959B
:1010E0005C988EBD00000DB407FEFDCF5C9A08959C
:1010F00090914E02982329F490914F02982381E019
:1011000009F480E0089580E00C9418068038910579
:10111000B8F460347105A0F490E121E061FD24E0B1
:1011200060FD220F62FD2295687F969FD0011124F9
:10113000A80FAB58BD4F0C90022A40FF02260C921C
:1011400008952F923F924F925F926F927F928F926B
:101150009F92AF92BF92CF92DF92EF92FF920F9346
:101160001F93CF93DF93EC018B017A016901C61ABB
:10117000D70AD7FE03C0D194C194D10847018C1A75
:101180009D0A97FE03C09194819491088C149D044C
:1011900054F49E2D8F2D7901292F382F9C2F8D2FC0
:1011A000E801092F182FEC16FD0654F4902F812F1B
:1011B0008901292F382F9C2F8D2FE701E92EF82E3A
:1011C00017012C1A3D0A2901401A510A57FE03C083
:1011D000519441945108310137FE03C08FEF681AD2
:1011E000780A759467948FEF021713070CF481E067
:1011F000A82E880FBB08EC16FD06A4F041E0BE0146
:10120000C8018C149D0414F0B801CE010E94860818
:101210006418750877FE04C00A0D1B1D620C731C50
:101220002196E9CFDF91CF911F910F91FF90EF9021
:10123000DF90CF90BF90AF909F908F907F906F90F6
:101240005F904F903F902F9008952F923F924F9232
:101250005F926F927F928F929F92AF92BF92CF9246
:10126000DF92EF92FF920F931F93CF93DF937C0156
:101270006B0188248394912CD0E0C0E003E010E05F
:101280009AEF692E77247A942EEFA22EBB24BA947B
:10129000842F8470582E842F8270482E842F88705B
:1012A000382E4170242E219682E0880E911CA80CC5
:1012B000B91C552091F041E0B8016C0D7D1DC701AE
:1012C0008C0F9D1F0E94860841E0B6016C0F7D1FA8
:1012D000C8018E0D9F1D0E948608442091F041E0B8
:1012E000B601601B710BC7018C0F9D1F0E94860801
:1012F00041E0B6016C1B7D0BC8018E0D9F1D0E9445
:101300008608332091F041E0B6016C0F7D1FC701C4
:10131000801B910B0E94860841E0B8016C0D7D1D79
:10132000C7018C1B9D0B0E948608222091F041E092
:10133000B6016C1B7D0BC701801B910B0E948608B8
:1013400041E0B601601B710BC7018C1B9D0B0E9415
:101350008608C017D1076CF48FEFA816B80609F4F9
:10136000A2CF0150110982E0680E711CA60CB71CB7
:101370009ACFDF91CF911F910F91FF90EF90DF9067
:10138000CF90BF90AF909F908F907F906F905F9025
:101390004F903F902F900895EF92FF920F931F93DD
:1013A000CF93DF937C018B01040F111DEB0177FFBD
:1013B00002C0D0E0C0E0C8010134110514F080E49F
:1013C00090E0C817D9073CF441E0BE01C7010E9474
:1013D00086082196F0CFDF91CF911F910F91FF905A
:1013E000EF9008958F929F92AF92BF92CF92DF922B
:1013F000EF92FF920F931F93CF93DF936D3009F419
:1014000058C06A3009F445C080914402811139C046
:10141000C0905202D090530200915002109151029C
:1014200085E0689FE0011124C650DE4F4801F12C91
:10143000E5E0E12CFE1629F0CE010196FE01E490D4
:10144000EC01B12CA12C4E2D4170B6016A0D7B1D13
:10145000C4010E948608E694FFEFAF1ABF0A88E035
:10146000A816B10481F7F394EFEF8E1A9E0AF6E006
:10147000FF12DECF0A5F1F4F1093510200935002FC
:1014800018C080915002909151028C3791050CF454
:10149000BFCF10925102109250028091520290914F
:1014A0005302089690935302809352026A3009F0D7
:1014B000AFCF81E090E0DF91CF911F910F91FF902E
:1014C000EF90DF90CF90BF90AF909F908F90089556
:1014D00090914802992379F0892F880F890F93E81A
:1014E00094BD9FEF97BD91EF90938000809388000B
:1014F00010928A00089583E884BD8FEF87BD81EF45
:101500008093800010928800F3CF089590E080E0EF
:101510000895FC0101900020E9F73197AF01481BC5
:10152000590BBC0185EC96E00C9438088F929F9281
:10153000AF92BF92CF92DF92EF92FF920F931F93E1
:10154000CF93DF93CDB7DEB7A1970FB6F894DEBF88
:101550000FBECDBF6C01990FEE08FF08F7FE41C02A
:101560006DE285EC96E00E94F2098C012227332778
:10157000A9012C193D094E095F0919A2CE018196D6
:101580007C019AE0892E912CA12CB12CCA01B901C1
:10159000A50194010E943315605DF70162937F01FC
:1015A000211531054105510589F790E080E030971C
:1015B00019F0CF010E94890A800F911FA1960FB6E2
:1015C000F894DEBF0FBECDBFDF91CF911F910F9179
:1015D000FF90EF90DF90CF90BF90AF909F908F9053
:1015E0000895A701960119A28E010F5D1F4F8AE091
:1015F000C82ED12CE12CF12CCA01B901A70196010A
:101600000E943315605DF80162938F012115310549
:101610004105510589F790E080E0309779F2CF01DC
:101620000E94890ACBCF2F923F924F925F926F9286
:101630007F928F929F92AF92BF92CF92DF92EF9262
:10164000FF920F931F93CF93DF93CDB7DEB76497CD
:101650000FB6F894DEBF0FBECDBF209111013091BF
:1016600012013A832983498164E170E08DE290E0C0
:101670000E944205498168E170E08DE290E00E949D
:10168000420545E064E170E08DE290E00E94CC0903
:1016900089819A81992745E064E170E08C960E94E7
:1016A000CC0940E751E070E060E087E090E00E9404
:1016B00079054AEC50E060E270E090E080E00E9442
:1016C000790540911B0150911C015A8349838091F7
:1016D000190190911A019C8B8B8B8091170190912D
:1016E00018010091150110911601209013013090FE
:1016F00014019C01990F440B550B2F8338874987A0
:101700005A87C801012E000CAA0BBB0B8B879C8744
:10171000AD87BE879101032C000C440B550B2F871E
:10172000388B498B5A8B49815A818B899C89481700
:1017300059070CF45FC0BC01990F880B990B0E94EC
:10174000761625E33AEF4EE85CE30E946A174B01F8
:101750005C016F81788589859A850E9476166B0178
:101760007C01C501B4010E94C7156B837C838D8306
:101770009E83C501B4010E94D7172B013C016B85E4
:101780007C858D859E850E9476164B015C01A301A8
:101790009201C701B6010E946A179B01AC01C50105
:1017A000B4010E9456150E943E164B016F85788940
:1017B00089899A890E9476162B013C012B813C81F4
:1017C0004D815E81C701B6010E946A179B01AC0181
:1017D000C301B2010E9456150E943E16CB0198012A
:1017E000A101B4010E94A108AB89BC891196BC8BF0
:1017F000AB8B99CF46E467E370E08DE290E00E9406
:10180000420549E06AE370E08AE290E00E94CC0978
:1018100049E06AE370E085E790E00E94CC0941E08E
:101820006AE370E08DE290E00E94250942E06AE3FD
:1018300070E082E790E00E94250944E062E470E0F5
:1018400082E790E00E94250948E062E470E08DE2C2
:1018500090E00E94250960910D0170910E01809128
:101860000F01909110010E943E162B016091090119
:1018700070910A0180910B0190910C010E943E161B
:101880004B016091050170910601809107019091D3
:1018900008010E943E166B016091010170910201E6
:1018A00080910301909104010E943E16CB019201A8
:1018B000A401B6010E94A1088DE290E0909351022C
:1018C000809350022AE030E030935302209352027A
:1018D0008EE491E00E94890A8091490290914A0227
:1018E0000E94960A80914D028230B9F54AE050E09C
:1018F000509351024093500289E190E0909353023B
:101900008093520286E591E00E94890A8091450207
:101910009091460265E070E00E942818892BD9F466
:1019200087EA64960FB6F894DEBF0FBECDBFDF9195
:10193000CF911F910F91FF90EF90DF90CF90BF90CC
:10194000AF909F908F907F906F905F904F903F905F
:101950002F900C94700886EAE4CF64960FB6F89442
:10196000DEBF0FBECDBFDF91CF911F910F91FF90D2
:10197000EF90DF90CF90BF90AF909F908F907F902F
:101980006F905F904F903F902F9008954F925F928D
:101990006F927F928F929F92AF92BF92CF92DF927F
:1019A000EF92FF92CF93DF93CDB7DEB760970FB67C
:1019B000F894DEBF0FBECDBF6B017C010E94D7172C
:1019C0006D837E838F839887C701B6010E94C715F8
:1019D00069877A878B879C87A1E0B1E08D919D9183
:1019E0000D90BC91A02D89839A83AB83BC839C010D
:1019F000AD016091090170910A0180910B019091F4
:101A00000C010E9455154B015C014090050150905E
:101A100006016090070170900801A3019201609196
:101A20000D0170910E0180910F01909110010E94A3
:101A300055156B017C0129853A854B855C85C5016F
:101A4000B4010E946A176D877E878F87988B2D81DE
:101A50003E814F815885C701B6010E946A179B01DC
:101A6000AC016D857E858F8598890E9455152981E9
:101A70003A814B815C810E945615609309017093F5
:101A80000A0180930B0190930C012D813E814F81BF
:101A90005885C501B4010E946A174B015C01298574
:101AA0003A854B855C85C701B6010E946A179B0188
:101AB000AC01C501B4010E945615A30192010E9418
:101AC000561560930D0170930E0180930F01909352
:101AD000100160960FB6F894DEBF0FBECDBFDF9148
:101AE000CF91FF90EF90DF90CF90BF90AF909F90FD
:101AF0008F907F906F905F904F9008951F920F92FC
:101B00000FB60F9211248F939F938091E1009091D3
:101B1000E100937F9093E10083FF0FC01092E900F2
:101B200091E09093EB001092EC0092E39093ED0023
:101B30001092740298E09093F00082FF22C093E02C
:101B40009093E9009091F200992319F09AE3909311
:101B5000E80090916502992341F0909165029150BF
:101B600090936502911101C05D9A9091730299233F
:101B700041F090917302915090937302911101C0C2
:101B8000289A84FF18C08091E2008E7E8160809345
:101B9000E2008091E1008F7E8093E10080916602F7
:101BA0008E7E8061809366029F918F910F900FBE11
:101BB0000F901F90189580FFF7CF8091E2008E7EE6
:101BC00080618093E2008091E1008E7E8093E1004D
:101BD000809166028E7E8160E5CF1F920F920FB6D4
:101BE0000F921124CF92DF92EF92FF920F931F93E7
:101BF0002F933F934F935F936F937F938F939F9315
:101C0000AF93BF93EF93FF93CF93DF93CDB7DEB73F
:101C10006C97DEBFCDBF1092E9008091E80083FF92
:101C200025C068E0CE0145960E947C0782EF809334
:101C3000E8008D8987FF39C09091E80090FFFCCFC4
:101C4000982F907609F034C19E894F89588D2F893D
:101C5000F88C911131C0803861F5809164028093D5
:101C6000F1001092F1008EEF8093E8006C960FB6B1
:101C7000F894DEBF0FBECDBFDF91CF91FF91EF9102
:101C8000BF91AF919F918F917F916F915F914F9194
:101C90003F912F911F910F91FF90EF90DF90CF9088
:101CA0000F900FBE0F901F9018959EEF9093E80035
:101CB000C7CF1092F100D5CF913059F48111D3CF15
:101CC0004130510581F6809164028D7F80936402DA
:101CD000CACF933049F48111C6CF4130510519F66E
:101CE000809164028260F2CF953041F48091E800E7
:101CF00080FFFCCF20682093E300B5CF963009F039
:101D0000A9C00B8D1C8D22E01092E9001092620296
:101D100010926102F2122EC01092600210925F02C5
:101D20000E944B071F8299E09983FA8291E09E837B
:101D300090EA98879AEF9987209161023091620228
:101D4000275F3F4F3C832B838D831092E9001092D5
:101D50006202109261021093600200935F0249E0F8
:101D600050E0BE016F5F7F4F80E00E9425070E9418
:101D70004B0779CF1093600200935F020E946206C6
:101D8000DC0112960D911C910115110509F451C148
:101D9000D801ED91FC910480F581E02DBE016B5ED0
:101DA0007F4FC8010995009709F03EC1F8010085F1
:101DB0001185EACFF3E0FF120EC08F89882309F462
:101DC00040C0823061F440E867E085E29AE00E941A
:101DD0006910811148CF81E28093EB0047CF8130B9
:101DE00029F440E86BE089E19AE0F1CF833099F77C
:101DF0000E946206DC011296ED90FC908E010F5F4E
:101E00001F4F6801E114F10479F0D701ED91FC91C5
:101E10000680F781E02DB801C7010995080F111D53
:101E2000F701E084F184EECFD8011C92F601019015
:101E30000020E9F73197BF016C197D0940E0C60128
:101E4000C6CF63E07AE0FB01449150E080E80E9455
:101E5000250709CF973009F4BECF983021F481E0EF
:101E60008093F10000CF993009F0FDCE837009F026
:101E7000B2CFEAE2F1E081E031E096E32191222362
:101E800071F08093E9003093EB00DF0111972C9102
:101E90002093EC009093ED008F5F873079F78EE709
:101EA0008093EA001092EA008F8980937402DBCE5F
:101EB0008B8D9C8D1092E90010926202109261024B
:101EC0009093600280935F02898D811192C08E8908
:101ED0009D89913A49F4813209F07DCF47E050E085
:101EE00061E271E080E0B3CF913209F074CF8332C8
:101EF00069F48F89988DB0E0A0E080931D019093E4
:101F00001E01A0931F01B0932001ADCE803269F471
:101F10008091E80082FFFCCF67E081E291E00E94BF
:101F20007C078BEF8093E8009ECE823209F09BCE37
:101F30008F8980932801EEEFFFE7859194918B3F85
:101F40009C4D51F1E0E0F8E0809121019091220157
:101F5000A0912301B0912401803B9440A105B105DB
:101F6000F1F48091280180FD1AC0EE3F8AE0F80765
:101F700089F587E797E7918380838091600080935C
:101F8000630288E19BE00FB6F894A8958093600007
:101F90000FBE9093600067CEEEEFFAE0D5CF808160
:101FA00091818737974709F05ECEA89580916000B0
:101FB0008861809360008091630280936000EE3FAF
:101FC0002AE0F20789F08091FE0A9091FF0A91833E
:101FD000808349CE808191818737980751F2909311
:101FE000FF0A8093FE0AC5CF1092FF0A1092FE0AE4
:101FF0003ACE0E946206DC0112960D911C910115E9
:10200000110509F4E8CED801ED91FC910190F08121
:10201000E02DBE016B5E7F4FC8010995811123CE73
:10202000F80100851185EBCF181619060CF41BCEAC
:10203000D2CEF1E0FF12BECE67E07AE004CF0F927D
:102040000FB68F939F93EF93FF93809156028D5F0E
:102050008D3708F08D5780935602E7E5F2E08081D6
:102060008E4F808391819F4F918382818F4F828396
:1020700083818F4F8383EBE5F2E080818F5F8083E4
:1020800081818F4F818382818F4F828383818F4FA4
:1020900083838FB18F6066991C9B88278F3681F46C
:1020A00080915502981B963068F0E0E0F8E087E7F1
:1020B0008083818388E180936000F0936000FFCF8C
:1020C00090935502FF91EF919F918F910FBE0F90CA
:1020D0001895EF92FF920F931F93CF93DF93F82EF3
:1020E000192FE62E042F81E0860F880F0E94F70635
:1020F00083E00E94F706CF2DD12FEC0EFD2EF11CB0
:10210000CE15DF05B9F007FF13C0FE0184910E94D0
:10211000F706182F80E00E94F7068123219681118F
:10212000EFCFDF91CF911F910F91FF90EF90089526
:102130008881EDCF81E0F5CFE5E7F6E013821282EA
:1021400088EE93E0A0E0B0E084839583A683B78314
:1021500084E391E0918380838FEF9FEF958784875D
:10216000E5ECF6E01382128286E491E091838083AD
:102170000895789483E084BD83E085BD81E08093F9
:102180006E00E1E8F0E083E08083E0E881E08083B6
:10219000E1E983E08083E0E981E08083E1EC87E0AE
:1021A0008083E3EC81E08083E0EC82E08083E2ECFA
:1021B00081E08083EAE787E08083806880831092F3
:1021C000740210926402109266028091D7008160BE
:1021D0008093D70080EA8093D80089B5806189BD5B
:1021E00089B5826089BD09B400FEFDCF81E090E031
:1021F0000E9489078091D8008F7C80618093D800ED
:102200008091E000807F8093E0008091E1008E7EED
:102210008093E1008DE08093E200559A209A81EC52
:1022200080937C0081EF85B987EE84B982E38BB916
:1022300082EF8AB9769A6E9880EF81BB10BA80E5FA
:102240008CBD81E08DBD85E00E9465085F9A85E0C8
:102250000E9465085C98EAEAF7E085918EBD00006F
:102260000DB407FEFDCFE73BC1F75C9A81E8809390
:10227000640081E0809365000E9483080E946808E2
:1022800087FF10C085EA0E9470082E982F982D981D
:102290008091640080628093640081E083BF8895B0
:1022A00013BEFCCF0E94680882FF37C02D980E94A1
:1022B000680884788438A1F42D9A88EC0E94650817
:1022C0002F986FEF82E090E00E94131584EF91E069
:1022D0000E9489072F9A0E94680884788438D9F36D
:1022E0000E94680884718431A1F42D9A88EC0E94C0
:1022F00065082E9860E082E090E00E94131584EF5C
:1023000091E00E9489072E9A0E94680884718431A6
:10231000D9F388EC0E946508C5CF2D9A82E090E041
:102320000E940B15882309F447C03E9A3F9A81E02A
:1023300090E00E940B15182F147081FF0AC0111134
:102340002E98C1EFDFEF0E94680886FF38C02E9AF2
:102350002F9A82E30E9465080E9468088111F9CFD4
:10236000109290008AE08093910080E180930001B8
:1023700009E110E08BE8682E7724739494E2E92E4B
:10238000F12C2FE2C22ED12C37E3A32EB12C4FE635
:10239000842E4FE9942E50E0452E50E0552E80912A
:1023A0004202882309F4A4C010924202411451044D
:1023B000B1F30E940000DECF3E983F98B8CF1123C2
:1023C00029F0C430D10511F42E9A2F9881E00E9493
:1023D00018060C2F0770A02EAE0163E055954795A7
:1023E0006A95E1F79A013695322F2227379527957E
:1023F0002B583D4F70E060E04E3F8FEF580761F182
:1024000090E080E0DB01A650B94F7901E0E8EE0EE4
:10241000F11CFD01E80FF91FE491F0E04F010A2CD7
:1024200002C0880C991C0A94E2F74F3F540739F018
:102430006901C80ED91EF601B488B828B48AAA204A
:1024400039F06701C80ED91EF60104890929048BE9
:10245000019688359105E9F64F5F5F4F20583F4F51
:10246000685A7F4F603B710539F60E9483088FE000
:102470000E9465082196C931D10509F064CF112366
:1024800011F02F9A2D9880E991E00E9489072D9AEA
:1024900081E090E00E940B1580FF5BCF8AE090E026
:1024A0000E940B159FEF980F9E3F08F052CF22E33A
:1024B00030E0309351022093500228E330E0309313
:1024C000530220935202CAE0D0E0682F85EC96E0D8
:1024D0000E94F2092196CE010E940B15C031D10550
:1024E000A1F70E94830888EE93E00E94890731CF0C
:1024F0009091570280914302F92FF81B8F2F209162
:102500000001F21748F48F5F821708F04FCF81E087
:1025100083BF889513BE4ACF81E080934202909397
:102520004302E5E4F2E0808191810196808391830A
:1025300080915402882339F0815080935402811194
:1025400002C01092900090E0E5E7F2E091119FEF59
:102550008FEF91939193919391938150D0F7109233
:102560005302109252021092510210925002809126
:102570004F0280934E020E94680880934F02809120
:102580004D02813009F499C048F0823009F4BFC18E
:10259000833009F426C20E94830808CF10931801E3
:1025A0000093170187ED90E090931A018093190131
:1025B00070921C0160921B0110924A021092490213
:1025C00010924802109212011092110183E884BD0A
:1025D0008FEF87BD81EF809380001092880010926A
:1025E0008A004FE359E06FE070E082E390E00E94E0
:1025F00079054DEF58E060E170E08AE590E00E94D7
:10260000790547EB57E070E060E08FE090E00E94D2
:10261000790581E080934402F0925102E0925002E9
:10262000D0925302C09252028AE691E00E94890A37
:1026300085E791E00E94890A1093510200935002AD
:10264000109253021092520288E791E00E94890A88
:1026500080E190E00E940B1580934B0281E190E0B5
:102660000E940B1580934C0280914B0290914C027A
:102670000E94960A1092510210925002B092530298
:10268000A092520284E891E00E94890A88E00E94A8
:102690007808811105C080E20E947808882319F02B
:1026A00081E080934D0284E00E947808882309F439
:1026B00072CF83E080934D026ECF87EA0E9470084C
:1026C0000E94680885FF31C02091190130911A01DC
:1026D0002B3E310554F560910D0170910E018091F2
:1026E0000F01909110012E5F3F4F30931A012093FC
:1026F000190120911B0130911C012E5F3F4F309337
:102700001C0120931B0120E030E04CE152E40E94C8
:102710006517181654F48091450280FD06C06EEAD4
:1027200077E481E69DE30E94C60C20E030E048E4B7
:1027300052E460910D0170910E0180910F01909112
:1027400010010E94C21587FF0AC08091450280FDDA
:1027500006C067E179ED8EEC9CEB0E94C60C20E090
:1027600030E048E452E460910D0170910E018091D7
:102770000F01909110010E946517181664F480E013
:1027800090E0A8E4B2E480930D0190930E01A09331
:102790000F01B0931001C0911901D0911A01C53BEE
:1027A000D10594F00E94680885FD0EC02197D09352
:1027B0001A01C093190180911B0190911C0101978E
:1027C00090931C0180931B018091190190911A0133
:1027D000843B910564F4E4EBF0E0F0931A01E0939C
:1027E000190188E691E090931C0180931B010E94DF
:1027F000680A60914802662379F180914702681760
:1028000009F464C070E090E080E00E94761620E059
:102810003FE64FE157E40E94CC150E94451621E0A7
:102820002093540220E420939000709399006093C9
:1028300098003091480220914702809111019091B7
:1028400012012317F0F50196909312018093110164
:10285000809148028093470280911101909112016A
:102860008335910534F0E1E0F0E0F0931201E0935C
:1028700011018091190190911A01853B9105ECF1AC
:102880008B3B91053CF020914802222319F0215006
:10289000209348029C01285B310922303105D8F48D
:1028A000809148028F5F8093480280914902909105
:1028B0004A02019690934A02809349020E94130BA8
:1028C0006ACE8230910524F20197BECF1092540255
:1028D00010929000BDCF873B910584F7809149020B
:1028E00090914A02029690934A0280934902809105
:1028F00048028E5F80934802E1CF843B9105F1F658
:102900008FEF8093480282E080934D02D7CFC09131
:102910004902D0914A0280914B0290914C028C174F
:102920009D07E4F4D0934C02C0934B0280E190E009
:102930000E940B15C81729F06C2F80E190E00E94CF
:102940002515C0914C0281E190E00E940B158C1777
:1029500029F06C2F81E190E00E9425150E94130B55
:102960000E94680A8091170190911801863991059B
:102970009CF501969093180180931701803491057E
:1029800054F48AE08093540280E480939000909203
:102990009900809298008091190190911A01813AD2
:1029A00091052CF0019790931A0180931901809161
:1029B0001B0190911C018C37F1E09F072CF40196CC
:1029C00090931C0180931B0188E00E947808882363
:1029D000E1F010924D02DFCD10925402109290005F
:1029E000DACF89E991E00E94890A85E791E00E94A7
:1029F000890A80E20E9478088111EBCF88E00E946A
:102A000078088111E6CF84E0E0CF80E40E94780866
:102A10008111DFCFC0CDF999FECF92BD81BDF89A6B
:102A2000992780B50895262FF999FECF92BD81BDD3
:102A3000F89A019700B4021639F01FBA20BD0FB6FC
:102A4000F894FA9AF99A0FBE0895262FF999FECFB5
:102A50001FBA92BD81BD20BD0FB6F894FA9AF99ABB
:102A60000FBE01960895A1E21A2EAA1BBB1BFD0101
:102A70000DC0AA1FBB1FEE1FFF1FA217B307E4075D
:102A8000F50720F0A21BB30BE40BF50B661F771FB5
:102A9000881F991F1A9469F7609570958095909595
:102AA0009B01AC01BD01CF0108955058BB27AA2757
:102AB0000E946D150C9417170E94DE1638F00E94C4
:102AC000E51620F039F49F3F19F426F40C94DB1638
:102AD0000EF4E095E7FB0C94D516E92F0E943C1705
:102AE00058F3BA17620773078407950720F079F443
:102AF000A6F50C945E170EF4E0950B2EBA2FA02DC0
:102B00000B01B90190010C01CA01A0011124FF279A
:102B1000591B99F0593F50F4503E68F11A16F04095
:102B2000A22F232F342F4427585FF3CF4695379594
:102B30002795A795F0405395C9F77EF41F16BA0B59
:102B4000620B730B840BBAF09150A1F0FF0FBB1F07
:102B5000661F771F881FC2F70EC0BA0F621F731F50
:102B6000841F48F4879577956795B795F7959E3FAD
:102B700008F0B0CF9395880F08F09927EE0F97953E
:102B8000879508950E94B11608F481E008950E9487
:102B9000EE16E3950C9428170E94E0150C94171775
:102BA0000E94E51658F00E94DE1640F029F45F3FBF
:102BB00029F00C94D51651110C945F170C94DB1668
:102BC0000E943C1768F39923B1F3552391F3951BA9
:102BD000550BBB27AA2762177307840738F09F5F3E
:102BE0005F4F220F331F441FAA1FA9F335D00E2EAB
:102BF0003AF0E0E832D091505040E695001CCAF718
:102C00002BD0FE2F29D0660F771F881FBB1F2617DA
:102C100037074807AB07B0E809F0BB0B802DBF01B1
:102C2000FF2793585F4F3AF09E3F510578F00C9480
:102C3000D5160C945F175F3FE4F3983ED4F3869566
:102C400077956795B795F7959F5FC9F7880F911DA1
:102C50009695879597F90895E1E0660F771F881F8D
:102C6000BB1F621773078407BA0720F0621B730B40
:102C7000840BBA0BEE1F88F7E09508950E94451665
:102C80006894B1110C945F1708950E94441788F05E
:102C90009F5798F0B92F9927B751B0F0E1F0660F20
:102CA000771F881F991F1AF0BA95C9F714C0B13061
:102CB00091F00E945E17B1E008950C945E17672FA3
:102CC000782F8827B85F39F0B93FCCF38695779590
:102CD0006795B395D9F73EF4909580957095619579
:102CE0007F4F8F4F9F4F0895E89409C097FB3EF4A4
:102CF00090958095709561957F4F8F4F9F4F992349
:102D0000A9F0F92F96E9BB279395F69587957795C6
:102D10006795B795F111F8CFFAF4BB0F11F460FF86
:102D20001BC06F5F7F4F8F4F9F4F16C0882311F0DE
:102D300096E911C0772321F09EE8872F762F05C0F2
:102D4000662371F096E8862F70E060E02AF09A958D
:102D5000660F771F881FDAF7880F9695879597F982
:102D60000895990F0008550FAA0BE0E8FEEF16161C
:102D70001706E807F907C0F012161306E407F5076F
:102D800098F0621B730B840B950B39F40A2661F0E3
:102D9000232B242B252B21F408950A2609F4A14086
:102DA000A6958FEF811D811D089597F99F6780E893
:102DB00070E060E008959FEF80EC089500240A948D
:102DC0001616170618060906089500240A94121606
:102DD00013061406050608950C94DB160E9444178A
:102DE000D8F3E894E0E0BB279F57F0F02AED3FE0EE
:102DF00049EC06C0EE0FBB0F661F771F881F28F037
:102E0000B23A62077307840728F0B25A620B730B59
:102E1000840BE3959A9572F7803830F49A95BB0F3E
:102E2000661F771F881FD2F790480C94E117092E70
:102E30000394000C11F4882352F0BB0F40F4BF2B15
:102E400011F460FF04C06F5F7F4F8F4F9F4F089555
:102E5000EF93E0FF07C0A2EA2AED3FE049EC5FEB09
:102E60000E946D150E9417170F90039401FC905853
:102E7000ECEAF0E00C94ED1757FD9058440F551F05
:102E800059F05F3F71F04795880F97FB991F61F0EC
:102E90009F3F79F087950895121613061406551F63
:102EA000F2CF4695F1DF08C0161617061806991FCF
:102EB000F1CF86957105610508940895E894BB27C4
:102EC00066277727CB0197F908950E94B11608F479
:102ED0008FEF08950E947D170C9417170E94DE163D
:102EE00038F00E94E51620F0952311F00C94D516C9
:102EF0000C94DB1611240C945F170E943C1770F39E
:102F0000959FC1F3950F50E0551F629FF001729F8E
:102F1000BB27F00DB11D639FAA27F00DB11DAA1F9D
:102F2000649F6627B00DA11D661F829F2227B00DEA
:102F3000A11D621F739FB00DA11D621F839FA00D75
:102F4000611D221F749F3327A00D611D231F849FC5
:102F5000600D211D822F762F6A2F11249F5750401C
:102F60009AF0F1F088234AF0EE0FFF1FBB1F661F97
:102F7000771F881F91505040A9F79E3F510580F060
:102F80000C94D5160C945F175F3FE4F3983ED4F38E
:102F9000869577956795B795F795E7959F5FC1F704
:102FA000FE2B880F911D9695879597F908959F930D
:102FB0000E94EE160F9007FCEE5F0C9428179F3FBF
:102FC00031F0915020F4879577956795B795880FE4
:102FD000911D9695879597F908959F938F937F9369
:102FE0006F93FF93EF939B01AC010E946A17EF91DF
:102FF000FF910E9401182F913F914F915F910C9486
:103000006A17DF93CF931F930F93FF92EF92DF9294
:103010007B018C01689406C0DA2EEF010E947D17B7
:10302000FE01E894A5912591359145915591A6F31E
:10303000EF010E946D15FE019701A801DA9469F76E
:10304000DF90EF90FF900F911F91CF91DF91089546
:10305000AA1BBB1B51E107C0AA1FBB1FA617B707BE
:1030600010F0A61BB70B881F991F5A95A9F78095DA
:103070009095BC01CD010895EE0FFF1F0590F491CE
:08308000E02D0994F894FFCF44
:10308800100000704200005C420000004200002076
:10309800420200500037001900D7008B01FFFFFFE4
:1030A800FF00E100000000000000C1808100000076
:1030B8000000000076069D0797068C06DD069B0635
:1030C800B90600000000F2093808860A850A52414C
:1030D8004473203A2000212121434F524520435276
:1030E80049544943414C2121210044656D6F6E20AC
:1030F800436F7265000D0A0048492D53434F5245EE
:10310800203A20003C2F413A5374617274202020E9
:103118002020423A48656C700055736520746865D4
:10312800204C45465420627574746F6E2020746F6D
:10313800207261697365207363726577647269765A
:1031480065722E2054727920746F2067657420741C
:10315800686520636F726520636C6F736520746F98
:1031680020637269746963616C6974792C20627573
:1031780074206265206361726566756C3A204966E1
:103188002020697420676F657320637269746963AE
:10319800616C20796F752077696C6C20626520639B
:1031A8006F6E73756D656420627920206E75636C2F
:0C31B800656172206669726521210000CB
:00000001FF
